{
  "_format": "hh-sol-artifact-1",
  "contractName": "PiracyCoordinator",
  "sourceName": "contracts/PiracyCoordinator.sol",
  "abi": [
    {
      "inputs": [
        {
          "internalType": "address",
          "name": "_piracyGuard",
          "type": "address"
        },
        {
          "internalType": "address",
          "name": "_rewardZKP",
          "type": "address"
        }
      ],
      "stateMutability": "nonpayable",
      "type": "constructor"
    },
    {
      "anonymous": false,
      "inputs": [
        {
          "indexed": true,
          "internalType": "address",
          "name": "scanner",
          "type": "address"
        },
        {
          "indexed": true,
          "internalType": "bytes32",
          "name": "infoHash",
          "type": "bytes32"
        },
        {
          "indexed": false,
          "internalType": "string",
          "name": "cid",
          "type": "string"
        }
      ],
      "name": "PiratedContentReported",
      "type": "event"
    },
    {
      "inputs": [],
      "name": "piracyGuard",
      "outputs": [
        {
          "internalType": "contract IPiracyGuard",
          "name": "",
          "type": "address"
        }
      ],
      "stateMutability": "view",
      "type": "function"
    },
    {
      "inputs": [
        {
          "internalType": "address payable",
          "name": "scanner",
          "type": "address"
        },
        {
          "internalType": "bytes32",
          "name": "infoHash",
          "type": "bytes32"
        },
        {
          "internalType": "string",
          "name": "cid",
          "type": "string"
        }
      ],
      "name": "reportPiracy",
      "outputs": [],
      "stateMutability": "nonpayable",
      "type": "function"
    },
    {
      "inputs": [],
      "name": "rewardZKP",
      "outputs": [
        {
          "internalType": "contract IRewardZKP",
          "name": "",
          "type": "address"
        }
      ],
      "stateMutability": "view",
      "type": "function"
    }
  ],
  "bytecode": "0x608060405234801561001057600080fd5b506040516108473803806108478339818101604052810190610032919061011d565b816000806101000a81548173ffffffffffffffffffffffffffffffffffffffff021916908373ffffffffffffffffffffffffffffffffffffffff16021790555080600160006101000a81548173ffffffffffffffffffffffffffffffffffffffff021916908373ffffffffffffffffffffffffffffffffffffffff160217905550505061015d565b600080fd5b600073ffffffffffffffffffffffffffffffffffffffff82169050919050565b60006100ea826100bf565b9050919050565b6100fa816100df565b811461010557600080fd5b50565b600081519050610117816100f1565b92915050565b60008060408385031215610134576101336100ba565b5b600061014285828601610108565b925050602061015385828601610108565b9150509250929050565b6106db8061016c6000396000f3fe608060405234801561001057600080fd5b50600436106100415760003560e01c80633ad42ec31461004657806360eeebcc14610062578063e42908b514610080575b600080fd5b610060600480360381019061005b91906103db565b61009e565b005b61006a61028e565b60405161007791906104ae565b60405180910390f35b6100886102b4565b60405161009591906104ea565b60405180910390f35b600073ffffffffffffffffffffffffffffffffffffffff1660008054906101000a900473ffffffffffffffffffffffffffffffffffffffff1673ffffffffffffffffffffffffffffffffffffffff1663221bda5084846040518363ffffffff1660e01b8152600401610111929190610563565b602060405180830381865afa15801561012e573d6000803e3d6000fd5b505050506040513d601f19601f8201168201806040525081019061015291906105c5565b73ffffffffffffffffffffffffffffffffffffffff16036101a8576040517f08c379a000000000000000000000000000000000000000000000000000000000815260040161019f9061063e565b60405180910390fd5b600160009054906101000a900473ffffffffffffffffffffffffffffffffffffffff1673ffffffffffffffffffffffffffffffffffffffff1663fb4101c085856040518363ffffffff1660e01b815260040161020592919061067c565b600060405180830381600087803b15801561021f57600080fd5b505af1158015610233573d6000803e3d6000fd5b50505050828473ffffffffffffffffffffffffffffffffffffffff167f68e8c90cef1c48df418c71b8b1d3e49d41a2b489aac838c0b88a9d8e7900d2358484604051610280929190610563565b60405180910390a350505050565b600160009054906101000a900473ffffffffffffffffffffffffffffffffffffffff1681565b60008054906101000a900473ffffffffffffffffffffffffffffffffffffffff1681565b600080fd5b600080fd5b600073ffffffffffffffffffffffffffffffffffffffff82169050919050565b600061030d826102e2565b9050919050565b61031d81610302565b811461032857600080fd5b50565b60008135905061033a81610314565b92915050565b6000819050919050565b61035381610340565b811461035e57600080fd5b50565b6000813590506103708161034a565b92915050565b600080fd5b600080fd5b600080fd5b60008083601f84011261039b5761039a610376565b5b8235905067ffffffffffffffff8111156103b8576103b761037b565b5b6020830191508360018202830111156103d4576103d3610380565b5b9250929050565b600080600080606085870312156103f5576103f46102d8565b5b60006104038782880161032b565b945050602061041487828801610361565b935050604085013567ffffffffffffffff811115610435576104346102dd565b5b61044187828801610385565b925092505092959194509250565b6000819050919050565b600061047461046f61046a846102e2565b61044f565b6102e2565b9050919050565b600061048682610459565b9050919050565b60006104988261047b565b9050919050565b6104a88161048d565b82525050565b60006020820190506104c3600083018461049f565b92915050565b60006104d48261047b565b9050919050565b6104e4816104c9565b82525050565b60006020820190506104ff60008301846104db565b92915050565b600082825260208201905092915050565b82818337600083830152505050565b6000601f19601f8301169050919050565b60006105428385610505565b935061054f838584610516565b61055883610525565b840190509392505050565b6000602082019050818103600083015261057e818486610536565b90509392505050565b6000610592826102e2565b9050919050565b6105a281610587565b81146105ad57600080fd5b50565b6000815190506105bf81610599565b92915050565b6000602082840312156105db576105da6102d8565b5b60006105e9848285016105b0565b91505092915050565b7f434944206e6f7420726567697374657265640000000000000000000000000000600082015250565b6000610628601283610505565b9150610633826105f2565b602082019050919050565b600060208201905081810360008301526106578161061b565b9050919050565b61066781610302565b82525050565b61067681610340565b82525050565b6000604082019050610691600083018561065e565b61069e602083018461066d565b939250505056fea26469706673582212204f1b6f62a320b2055d7fa50cd52fd08226bbecad9844310a7a2326780b16570e64736f6c634300081c0033",
  "linkReferences": {},
  "deployedLinkReferences": {}
}