{
  "_format": "hh-sol-artifact-1",
  "contractName": "PiracyGuard",
  "sourceName": "contracts/PiracyGuard.sol",
  "abi": [
    {
      "anonymous": false,
      "inputs": [
        {
          "indexed": false,
          "internalType": "string",
          "name": "ipfsCid",
          "type": "string"
        },
        {
          "indexed": true,
          "internalType": "address",
          "name": "creator",
          "type": "address"
        }
      ],
      "name": "ContentRegistered",
      "type": "event"
    },
    {
      "inputs": [
        {
          "internalType": "string",
          "name": "",
          "type": "string"
        }
      ],
      "name": "contentCreators",
      "outputs": [
        {
          "internalType": "address",
          "name": "",
          "type": "address"
        }
      ],
      "stateMutability": "view",
      "type": "function"
    },
    {
      "inputs": [
        {
          "internalType": "string",
          "name": "ipfsCid",
          "type": "string"
        }
      ],
      "name": "registerContent",
      "outputs": [],
      "stateMutability": "nonpayable",
      "type": "function"
    }
  ],
  "bytecode": "0x6080604052348015600f57600080fd5b5061062b8061001f6000396000f3fe608060405234801561001057600080fd5b50600436106100365760003560e01c8063221bda501461003b578063ac4d9cb21461006b575b600080fd5b6100556004803603810190610050919061038c565b610087565b6040516100629190610416565b60405180910390f35b61008560048036038101906100809190610491565b6100d0565b005b6000818051602081018201805184825260208301602085012081835280955050505050506000915054906101000a900473ffffffffffffffffffffffffffffffffffffffff1681565b600073ffffffffffffffffffffffffffffffffffffffff16600083836040516100fa92919061050e565b908152602001604051809103902060009054906101000a900473ffffffffffffffffffffffffffffffffffffffff1673ffffffffffffffffffffffffffffffffffffffff161461017f576040517f08c379a000000000000000000000000000000000000000000000000000000000815260040161017690610584565b60405180910390fd5b336000838360405161019292919061050e565b908152602001604051809103902060006101000a81548173ffffffffffffffffffffffffffffffffffffffff021916908373ffffffffffffffffffffffffffffffffffffffff1602179055503373ffffffffffffffffffffffffffffffffffffffff167f8bdba5ae727c8e17423d98d701d2796504748417055ef0143a7cfece5b054a6b83836040516102269291906105d1565b60405180910390a25050565b6000604051905090565b600080fd5b600080fd5b600080fd5b600080fd5b6000601f19601f8301169050919050565b7f4e487b7100000000000000000000000000000000000000000000000000000000600052604160045260246000fd5b61029982610250565b810181811067ffffffffffffffff821117156102b8576102b7610261565b5b80604052505050565b60006102cb610232565b90506102d78282610290565b919050565b600067ffffffffffffffff8211156102f7576102f6610261565b5b61030082610250565b9050602081019050919050565b82818337600083830152505050565b600061032f61032a846102dc565b6102c1565b90508281526020810184848401111561034b5761034a61024b565b5b61035684828561030d565b509392505050565b600082601f83011261037357610372610246565b5b813561038384826020860161031c565b91505092915050565b6000602082840312156103a2576103a161023c565b5b600082013567ffffffffffffffff8111156103c0576103bf610241565b5b6103cc8482850161035e565b91505092915050565b600073ffffffffffffffffffffffffffffffffffffffff82169050919050565b6000610400826103d5565b9050919050565b610410816103f5565b82525050565b600060208201905061042b6000830184610407565b92915050565b600080fd5b600080fd5b60008083601f84011261045157610450610246565b5b8235905067ffffffffffffffff81111561046e5761046d610431565b5b60208301915083600182028301111561048a57610489610436565b5b9250929050565b600080602083850312156104a8576104a761023c565b5b600083013567ffffffffffffffff8111156104c6576104c5610241565b5b6104d28582860161043b565b92509250509250929050565b600081905092915050565b60006104f583856104de565b935061050283858461030d565b82840190509392505050565b600061051b8284866104e9565b91508190509392505050565b600082825260208201905092915050565b7f416c726561647920726567697374657265640000000000000000000000000000600082015250565b600061056e601283610527565b915061057982610538565b602082019050919050565b6000602082019050818103600083015261059d81610561565b9050919050565b60006105b08385610527565b93506105bd83858461030d565b6105c683610250565b840190509392505050565b600060208201905081810360008301526105ec8184866105a4565b9050939250505056fea26469706673582212205c46aea5116a248573b5b054e910f7652ebba626a1a0912ec25d76ce3bf0b6d864736f6c634300081c0033",
  "linkReferences": {},
  "deployedLinkReferences": {}
}