{
  "_format": "hh-sol-artifact-1",
  "contractName": "RewardZKP",
  "sourceName": "contracts/RewardZKP.sol",
  "abi": [
    {
      "inputs": [
        {
          "internalType": "uint256",
          "name": "_rewardAmount",
          "type": "uint256"
        }
      ],
      "stateMutability": "nonpayable",
      "type": "constructor"
    },
    {
      "anonymous": false,
      "inputs": [
        {
          "indexed": true,
          "internalType": "address",
          "name": "winner",
          "type": "address"
        },
        {
          "indexed": false,
          "internalType": "uint256",
          "name": "amount",
          "type": "uint256"
        },
        {
          "indexed": true,
          "internalType": "bytes32",
          "name": "infoHash",
          "type": "bytes32"
        }
      ],
      "name": "Rewarded",
      "type": "event"
    },
    {
      "inputs": [],
      "name": "owner",
      "outputs": [
        {
          "internalType": "address",
          "name": "",
          "type": "address"
        }
      ],
      "stateMutability": "view",
      "type": "function"
    },
    {
      "inputs": [
        {
          "internalType": "address payable",
          "name": "winner",
          "type": "address"
        },
        {
          "internalType": "bytes32",
          "name": "infoHash",
          "type": "bytes32"
        }
      ],
      "name": "reward",
      "outputs": [],
      "stateMutability": "nonpayable",
      "type": "function"
    },
    {
      "inputs": [],
      "name": "rewardAmount",
      "outputs": [
        {
          "internalType": "uint256",
          "name": "",
          "type": "uint256"
        }
      ],
      "stateMutability": "view",
      "type": "function"
    },
    {
      "inputs": [
        {
          "internalType": "bytes32",
          "name": "",
          "type": "bytes32"
        }
      ],
      "name": "rewarded",
      "outputs": [
        {
          "internalType": "bool",
          "name": "",
          "type": "bool"
        }
      ],
      "stateMutability": "view",
      "type": "function"
    },
    {
      "stateMutability": "payable",
      "type": "receive"
    }
  ],
  "bytecode": "0x6080604052348015600f57600080fd5b506040516106df3803806106df8339818101604052810190602f919060b1565b336000806101000a81548173ffffffffffffffffffffffffffffffffffffffff021916908373ffffffffffffffffffffffffffffffffffffffff160217905550806001819055505060d9565b600080fd5b6000819050919050565b6091816080565b8114609b57600080fd5b50565b60008151905060ab81608a565b92915050565b60006020828403121560c45760c3607b565b5b600060d084828501609e565b91505092915050565b6105f7806100e86000396000f3fe6080604052600436106100435760003560e01c806335cd19a31461004f5780638da5cb5b1461008c578063f7b2a7be146100b7578063fb4101c0146100e25761004a565b3661004a57005b600080fd5b34801561005b57600080fd5b5061007660048036038101906100719190610321565b61010b565b6040516100839190610369565b60405180910390f35b34801561009857600080fd5b506100a161012b565b6040516100ae91906103c5565b60405180910390f35b3480156100c357600080fd5b506100cc61014f565b6040516100d991906103f9565b60405180910390f35b3480156100ee57600080fd5b5061010960048036038101906101049190610452565b610155565b005b60026020528060005260406000206000915054906101000a900460ff1681565b60008054906101000a900473ffffffffffffffffffffffffffffffffffffffff1681565b60015481565b6002600082815260200190815260200160002060009054906101000a900460ff16156101b6576040517f08c379a00000000000000000000000000000000000000000000000000000000081526004016101ad906104ef565b60405180910390fd5b60016002600083815260200190815260200160002060006101000a81548160ff02191690831515021790555060008273ffffffffffffffffffffffffffffffffffffffff1660015460405161020a90610540565b60006040518083038185875af1925050503d8060008114610247576040519150601f19603f3d011682016040523d82523d6000602084013e61024c565b606091505b5050905080610290576040517f08c379a0000000000000000000000000000000000000000000000000000000008152600401610287906105a1565b60405180910390fd5b818373ffffffffffffffffffffffffffffffffffffffff167f394ec7430fa71464401cd129de84913ff4838ab56a20f13e0aa16a04402f0a336001546040516102d991906103f9565b60405180910390a3505050565b600080fd5b6000819050919050565b6102fe816102eb565b811461030957600080fd5b50565b60008135905061031b816102f5565b92915050565b600060208284031215610337576103366102e6565b5b60006103458482850161030c565b91505092915050565b60008115159050919050565b6103638161034e565b82525050565b600060208201905061037e600083018461035a565b92915050565b600073ffffffffffffffffffffffffffffffffffffffff82169050919050565b60006103af82610384565b9050919050565b6103bf816103a4565b82525050565b60006020820190506103da60008301846103b6565b92915050565b6000819050919050565b6103f3816103e0565b82525050565b600060208201905061040e60008301846103ea565b92915050565b600061041f82610384565b9050919050565b61042f81610414565b811461043a57600080fd5b50565b60008135905061044c81610426565b92915050565b60008060408385031215610469576104686102e6565b5b60006104778582860161043d565b92505060206104888582860161030c565b9150509250929050565b600082825260208201905092915050565b7f416c726561647920726577617264656400000000000000000000000000000000600082015250565b60006104d9601083610492565b91506104e4826104a3565b602082019050919050565b60006020820190508181036000830152610508816104cc565b9050919050565b600081905092915050565b50565b600061052a60008361050f565b91506105358261051a565b600082019050919050565b600061054b8261051d565b9150819050919050565b7f526577617264207472616e73666572206661696c656400000000000000000000600082015250565b600061058b601683610492565b915061059682610555565b602082019050919050565b600060208201905081810360008301526105ba8161057e565b905091905056fea26469706673582212208fc5d908c4cb3dee268640d166491f56567021613a40f31b1c1d55ea06bd554564736f6c634300081c0033",
  "linkReferences": {},
  "deployedLinkReferences": {}
}